:020000040800F2
:1000000040070020B501000871220008D91C000833
:10001000911E0008BD020008CD2B00080000000062
:10002000000000000000000000000000052600089D
:10003000C1020008000000000D2300085D26000832
:10004000CF010008CF010008CF010008CF01000850
:10005000CF010008CF010008CF010008CF01000840
:10006000CF010008CF010008CF010008CF01000830
:10007000CF010008CF010008CF010008CF01000820
:10008000CF010008CF010008CF010008CF01000810
:10009000CF010008CF010008CF010008CF01000800
:1000A000CF010008CF010008CF010008CF010008F0
:1000B000CF010008CF010008CF010008CF010008E0
:1000C000CF010008CF010008CF010008CF010008D0
:1000D000CF010008AD2B0008CF010008BD2B0008A0
:1000E000CF010008CF010008CF01000800F002F89E
:1000F00000F050F814A696E8000CB244B344DA4578
:1001000001D100F047F8BAE80F000FA696E83000DA
:10011000A5EB040504EB0607AAEB0704A7F101070A
:100120004FEA15154FEA3414A4F10104AC4201D38F
:1001300000F030F813F0010F18BFFB1A43F0010371
:1001400000F001F8DBE71847A8350000C8350000CB
:10015000103A24BF78C878C1FAD8520724BF30C8F3
:1001600030C144BF04680C60704700007047000055
:100170000023002400250026103A28BF78C1FBD8B0
:10018000520728BF30C148BF0B6070471FB51FBD65
:1001900010B510BD00F058F81146FFF7F7FF02F058
:1001A00077FD00F076F803B4FFF7F2FF03BC00F030
:1001B0007DF800000948804709480047FEE7FEE750
:1001C000FEE7FEE7FEE7FEE7FEE7FEE7FEE7FEE707
:1001D00004480549054A064B70470000D12600082F
:1001E000ED000008400100204007002040030020EF
:1001F000400300204FF0000200B513469446964697
:10020000203922BFA0E80C50A0E80C50B1F1200129
:10021000BFF4F7AF090728BFA0E80C5048BF0CC0D7
:100220005DF804EB890028BF40F8042B08BF704735
:1002300048BF20F8022B11F0804F18BF00F8012BA7
:100240007047704770477047754600F02BF8AE4610
:1002500005006946534620F00700854618B020B5D2
:10026000FFF7B6FFBDE820404FF000064FF0000753
:100270004FF000084FF0000BAC46ACE8C009ACE80A
:10028000C009ACE8C009ACE8C00921F007018D46FF
:10029000704710B50446AFF300802046BDE810401B
:1002A000FFF781BF00487047100000200149182067
:1002B000ABBEFEE72600020070470000FFE7FEE746
:1002C0007047000081B0EFF3108072B60090FFE736
:1002D000FEE7000083B0019000208DF80300019834
:1002E00090F8210002280DD0FFE7019904208863CF
:1002F000FFE70199002081F82000FFE701208DF839
:100300000B0021E001980168086820F00E000860E9
:1003100001980168086820F0010008600198C16B2D
:10032000026C012090404860FFE70199012081F8AC
:100330002100FFE70199002081F82000FFE79DF8E8
:1003400003008DF80B00FFE79DF80B0003B070472A
:1003500080B588B0079000208DF81B00079890F8B2
:100360002100022807D0FFE70799042088630120B5
:100370008DF81B0076E007980168086820F00E00F1
:10038000086007980168086820F001000860079875
:1003900000680821C4F20201884203D1FFE701206E
:1003A000059047E0079800681C21C4F202018842CA
:1003B00003D1FFE71020049039E00798006830214E
:1003C000C4F20201884204D1FFE74FF48070039029
:1003D0002AE0079800684421C4F20201884204D14F
:1003E000FFE74FF4805002901BE007980068582107
:1003F000C4F20201884204D1FFE74FF4803001903B
:100400000CE0079801686C22C4F202024FF0807081
:10041000914208BF4FF480100190FFE701980290CD
:10042000FFE702980390FFE703980490FFE7049822
:100430000590FFE705980421C4F2020108600799BE
:10044000012081F82100FFE70799002081F82000B2
:10045000FFE70798406B20B1FFE70798416B88479B
:10046000FFE7FFE79DF81B0008B080BD80B584B0B2
:10047000039000F0DDF9029003980190019801309B
:1004800048B1FFE740F20400C2F200000178019891
:1004900008440190FFE7FFE700F0CAF90299401A0B
:1004A0000199884201D2FFE7F6E704B080BD000061
:1004B00090B00F900E9100200D900990FFE70E98DC
:1004C00000680D99C840002800F07F81FFE70D9972
:1004D000012088400C900E9800680C9908400B9001
:1004E0000B980C99884240F06C81FFE70E984068A9
:1004F0000590002851D0FFE7059801283AD0FFE782
:10050000059802283FD0FFE7059803285FD0FFE752
:100510000598112832D0FFE70598122838D0FFE758
:1005200005980021C1F21101884236D0FFE70598F5
:100530000021C1F2120188422FD0FFE70598002167
:10054000C1F22101884228D0FFE705980021C1F2BD
:100550002201884221D0FFE705980021C1F2310134
:1005600088421AD0FFE705980021C1F23201884283
:1005700013D02FE00E98C06809902CE00E98C06848
:100580000430099027E00E98C0680830099022E0F6
:100590000E98C0680C3009901DE00E98806818B95C
:1005A000FFE70420099011E00E988068012806D129
:1005B000FFE7082009900C980F99086105E00820D2
:1005C00009900C980F994861FFE7FFE703E00020CE
:1005D000099000E0FFE70B98FF2803D8FFE70F988A
:1005E000049003E00F9804300490FFE7049808900B
:1005F0000B98FF2804D8FFE70D988000039006E0D1
:100600000D996FF01F0000EB81000390FFE7039846
:10061000079008980068079A0F219140884309992C
:1006200091400843089908600E98C079C0060028D8
:1006300040F1C680FFE7FFE741F21800C4F2020074
:10064000016841F001010160006800F001000690BE
:100650000698FFE70D9820F003000821C4F201017D
:1006600040580A900D9800F0030081000F2000FA16
:1006700001F10A9888430A900F9840F60001C4F2ED
:100680000101884203D1FFE70020029026E00F9885
:1006900040F60041C4F20101884203D1FFE7012086
:1006A000019018E00F9841F20001C4F20101884264
:1006B00003D1FFE7022000900AE00F9941F20042C7
:1006C000C4F201020420914208BF03200090FFE71A
:1006D00000980190FFE701980290FFE702980D99BA
:1006E00001F00301890000FA01F10A9808430A9019
:1006F0000A980D9921F003010822C4F201028850E2
:100700000E988079C006002809D5FFE70B9A40F2C1
:100710000841C4F2010108681043086008E00B9A20
:1007200040F20841C4F20101086890430860FFE705
:100730000E9880798006002809D5FFE70B9A40F2D1
:100740000C41C4F2010108681043086008E00B9AEC
:1007500040F20C41C4F20101086890430860FFE7D1
:100760000E9880798007002809D5FFE70B9A40F2A0
:100770000441C4F2010108681043086008E00B9AC4
:1007800040F20441C4F20101086890430860FFE7A9
:100790000E988079C00748B1FFE70B9A40F20041FC
:1007A000C4F2010108681043086008E00B9A40F2A7
:1007B0000041C4F20101086890430860FFE7FFE7C9
:1007C000FFE70D9801300D9079E610B070470000FA
:1007D00082B00190ADF8021001988068BDF8021057
:1007E000084204D0FFE701208DF8010003E000205B
:1007F0008DF80100FFE79DF8010002B0704700008E
:1008000082B00190ADF802108DF801209DF8010032
:1008100028B1FFE7BDF802000199086105E0BDF8C5
:100820000200000401990861FFE702B07047000070
:1008300040F23C10C2F200000068704740F2040031
:10084000C2F20000027840F23C11C2F200010868D6
:10085000104408607047000080B542F20001C4F205
:100860000201086840F010000860032000F096F8CC
:100870000F2000F005F800F03BF8002080BD0000DC
:1008800080B582B0009040F20000C2F20000006823
:1008900040F20401C2F200010A784FF47A71B1FB10
:1008A000F2F1B0FBF1F000F073FD20B1FFE70120A1
:1008B0008DF8070018E000980F280DD8FFE7009981
:1008C0004FF0FF30002200F04FF8009840F208018E
:1008D000C2F20001086003E001208DF8070003E088
:1008E00000208DF80700FFE79DF8070002B080BDEB
:1008F00083B0FFE741F21800C4F20200016841F042
:1009000001010160006800F0010002900298FFE719
:10091000FFE741F21C00C4F20200016841F080517F
:100920000160006800F0805001900198FFE7FFE748
:100930000421C4F2010108680090009820F0E060F2
:100940000090009840F00070009000980860FFE769
:1009500003B0704780B582B08DF807009DF907009D
:1009600002F036F902B080BD80B586B08DF8170070
:10097000049103920020029002F042F902909DF946
:100980001700019002980499039A01F073FC014644
:10099000019802F03DF906B080BD000080B582B03C
:1009A0000190019802F056F902B080BD80B584B084
:1009B00002900191029820B9FFE701208DF80F0005
:1009C0001BE1019842F20001C4F20201096801F042
:1009D0000701884216D9FFE742F20000C4F2020084
:1009E000016821F00701019A11430160006800F0DD
:1009F00007000199884204D0FFE701208DF80F001D
:100A0000FBE0FFE702980078800700282AD5FFE77F
:100A1000029800784007002809D5FFE741F2040159
:100A2000C4F20201086840F4E0600860FFE7029841
:100A300000780007002809D5FFE741F20401C4F25D
:100A40000201086840F460500860FFE741F20401C9
:100A5000C4F20201086820F0F000029A9268104384
:100A60000860FFE702980078C007002860D0FFE721
:100A70000298406801280ED1FFE741F20000C4F25D
:100A8000020000688003002804D4FFE701208DF8ED
:100A90000F00B2E021E00298406802280ED1FFE783
:100AA00041F20000C4F2020000688001002804D472
:100AB000FFE701208DF80F009FE00DE041F20000FC
:100AC000C4F2020000688007002804D4FFE7012078
:100AD0008DF80F0091E0FFE7FFE741F20401C4F257
:100AE0000201086820F00300029A5268104308606F
:100AF000FFF79EFE0090FFE741F20400C4F20200FF
:100B0000006800F00C0002994968B0EB810F0ED02C
:100B1000FFE7FFF78DFE0099401A41F289318842C4
:100B200004D3FFE703208DF80F0066E0E4E7FFE75A
:100B3000019842F20001C4F20201096801F00701C4
:100B4000884216D2FFE742F20000C4F202000168B8
:100B500021F00701019A11430160006800F00700CD
:100B60000199884204D0FFE701208DF80F0044E08E
:100B7000FFE702980078400700280CD5FFE741F214
:100B80000401C4F20201086820F4E060029AD2680D
:100B900010430860FFE702980078000700280DD591
:100BA000FFE741F20401C4F20201086820F460503A
:100BB000029A126940EAC2000860FFE700F04CF8B0
:100BC00041F20401C4F202010968C9B20A0943F200
:100BD000C661C0F60001895CC84040F20001C2F263
:100BE0000001086040F20800C2F200000068FFF750
:100BF00047FE00208DF80F00FFE79DF80F0004B0BE
:100C000080BD000040F20000C2F2000000687047A2
:100C100080B5FFF7F7FF41F20401C4F20201096851
:100C2000C1F3022243F2D661C0F60001895CC840DC
:100C300080BD000080B5FFF7E5FF41F20401C4F27A
:100C400002010968C1F3C22243F2D661C0F6000175
:100C5000895CC84080BD000086B0002005900490EB
:100C600003900290019041F20400C4F20200006877
:100C70000590059800F00C000146009100283FD037
:100C8000FFE70098042804D0FFE70098082806D062
:100C900037E041F20020C0F27A00019037E0059879
:100CA000C0F3834143F2DE60C0F60000405C029076
:100CB0009DF81600C007C0B1FFE741F20400C4F27E
:100CC00002000068C0F3404143F2EE60C0F600004D
:100CD000405C0490029841F20021C0F27A0148433E
:100CE0000499B0FBF1F0039007E0029840F6001180
:100CF000C0F23D0148430390FFE70398019006E0EE
:100D0000FFE741F20020C0F27A000190FFE701986E
:100D100006B0704780B586B00490049820B9FFE70C
:100D200001208DF817002EE304980078C0070028F2
:100D300000F0AE80FFE741F20400C4F20200006858
:100D400000F00C00042813D0FFE741F20400C4F2C5
:100D50000200006800F00C0008281BD1FFE741F2F8
:100D60000400C4F202000068C003002812D5FFE7A7
:100D700041F20000C4F2020000688003002808D598
:100D8000FFE70498406820B9FFE701208DF81700BD
:100D9000F9E27CE0FFE704984068B0F5803F09D1B4
:100DA000FFE741F20001C4F20201086840F480301C
:100DB000086032E00498406868B9FFE741F200013A
:100DC000C4F20201086820F480300860086820F44A
:100DD0008020086020E004984068B0F5A02F0DD175
:100DE000FFE741F20001C4F20201086840F48020EC
:100DF0000860086840F4803008600CE041F20001AF
:100E0000C4F20201086820F480300860086820F409
:100E100080200860FFE7FFE7FFE7FFE704984068EE
:100E2000D0B1FFE7FFF704FD0390FFE741F20000B8
:100E3000C4F202000068800300280CD4FFE7FFF72B
:100E4000F7FC0399401A652804D3FFE703208DF8C7
:100E5000170098E2EAE719E0FFF7EAFC0390FFE7E2
:100E600041F20000C4F202000068800300280CD5A3
:100E7000FFE7FFF7DDFC0399401A652804D3FFE77D
:100E800003208DF817007EE2EAE7FFE7FFE7FFE7C0
:100E9000049800788007002840F18D80FFE741F238
:100EA0000400C4F20200006810F00C0F13D0FFE73A
:100EB00041F20400C4F20200006800F00C000828AF
:100EC00029D1FFE741F20400C4F202000068C00328
:100ED000002820D4FFE741F20000C4F202000068BD
:100EE0008007002809D5FFE704980069012804D08D
:100EF000FFE701208DF8170045E241F20001C4F23E
:100F00000201086820F0F800049A526940EAC20021
:100F10000860FFE74EE00498006958B3FFE700213E
:100F2000C4F2422101200860FFF782FC0390FFE732
:100F300041F20000C4F202000068800700280CD4CF
:100F4000FFE7FFF775FC0399401A032804D3FFE776
:100F500003208DF8170016E2EAE741F20001C4F21F
:100F60000201086820F0F800049A526940EAC200C1
:100F700008601EE00021C4F2422100200860FFF753
:100F800057FC0390FFE741F20000C4F20200006842
:100F9000800700280CD5FFE7FFF74AFC0399401AA9
:100FA000032804D3FFE703208DF81700EBE1EAE7FD
:100FB000FFE7FFE7FFE7049800780007002848D51F
:100FC000FFE70498806918B3FFE740F28041C4F25C
:100FD000422101200860FFF72BFC0390FFE741F25C
:100FE0002400C4F202000068800700280CD4FFE748
:100FF000FFF71EFC0399401A032804D3FFE70320E0
:101000008DF81700BFE1EAE7012001F0DDFA1FE0EB
:1010100040F28041C4F2422100200860FFF708FC42
:101020000390FFE741F22400C4F202000068800749
:1010300000280CD5FFE7FFF7FBFB0399401A0328B4
:1010400004D3FFE703208DF817009CE1EAE7FFE7F0
:10105000FFE7049800784007002840F1D880FFE7B8
:1010600000208DF8070041F21C00C4F20200006865
:10107000C000002813D4FFE7FFE741F21C00C4F2D0
:101080000200016841F080510160006800F080506A
:1010900000900098FFE701208DF80700FFE747F276
:1010A0000000C4F200000068C005002822D4FFE759
:1010B00047F20001C4F20001086840F48070086043
:1010C000FFF7B6FB0390FFE747F20000C4F2000011
:1010D0000068C00500280CD4FFE7FFF7A9FB0399BF
:1010E000401A652804D3FFE703208DF817004AE172
:1010F000EAE7FFE7FFE70498C068012809D1FFE7A6
:1011000041F22001C4F20201086840F001000860C9
:1011100031E00498C06868B9FFE741F22001C4F2E9
:101120000201086820F001000860086820F004004F
:1011300008601FE00498C06805280DD1FFE741F260
:101140002001C4F20201086840F004000860086849
:1011500040F0010008600CE041F22001C4F20201FD
:10116000086820F001000860086820F004000860AA
:10117000FFE7FFE7FFE7FFE70498C068E0B1FFE79C
:10118000FFF756FB0390FFE741F22000C4F2020094
:101190000068800700280ED4FFE7FFF749FB03999A
:1011A000401A41F28931884204D3FFE703208DF8C9
:1011B0001700E8E0E8E71BE0FFF73AFB0390FFE7E2
:1011C00041F22000C4F202000068800700280ED51A
:1011D000FFE7FFF72DFB0399401A41F2893188425E
:1011E00004D3FFE703208DF81700CCE0E8E7FFE722
:1011F0009DF80700012809D1FFE741F21C01C4F264
:101200000201086820F080500860FFE7FFE70498BB
:10121000C069002800F0B380FFE741F20400C4F287
:101220000200006800F00C00082800F08280FFE750
:101230000498C06902285CD1FFE76021C4F2422112
:1012400000200860FFF7F4FA0390FFE741F2000086
:10125000C4F202000068800100280CD5FFE7FFF708
:10126000E7FA0399401A032804D3FFE703208DF817
:10127000170088E0EAE70498006AB0F5803F0CD1D7
:10128000FFE741F20401C4F20201086820F40030D3
:10129000049A926810430860FFE741F20401C4F227
:1012A0000201086820F47410049B1A6A5B6A1A43EE
:1012B000104308606021C4F2422101200860FFF75A
:1012C000B7FA0390FFE741F20000C4F202000068A1
:1012D000800100280CD4FFE7FFF7AAFA0399401A0F
:1012E000032804D3FFE703208DF817004BE0EAE75B
:1012F0001EE06021C4F2422100200860FFF798FA46
:101300000390FFE741F20000C4F202000068800190
:1013100000280CD5FFE7FFF78BFA0399401A032842
:1013200004D3FFE703208DF817002CE0EAE7FFE77E
:1013300024E00498C069012804D1FFE701208DF85A
:10134000170020E041F20400C4F20200006802909D
:10135000029800F480300499096A884208D1FFE7B6
:10136000029800F470100499496A884204D0FFE79B
:1013700001208DF8170006E0FFE7FFE7FFE70020F8
:101380008DF81700FFE79DF8170006B080BD00003C
:1013900080B582B00190019801F036F902B080BDAD
:1013A00082B00190ADF8021002B0704781B0009099
:1013B00001B0704780B592B0119011980068006834
:1013C000109011980068C0680F90119800684069EB
:1013D0000E9000200D900C90109800F00F000D90D2
:1013E0000D9888B9FFE79DF84000800600280AD5CF
:1013F000FFE79DF83C008006002804D5FFE7119820
:1014000001F0D6F9E9E1FFE70D98002800F0C2806D
:10141000FFE79DF83800C00738B9FFE7BDF83C008A
:1014200010F4907F00F0B680FFE79DF84000C00701
:1014300058B1FFE79DF83D00C00730B1FFE71199B3
:10144000486C40F001004864FFE79DF84000400709
:1014500000280BD5FFE79DF83800C00730B1FFE743
:101460001199486C40F002004864FFE79DF8400085
:10147000800700280BD5FFE79DF83800C00730B182
:10148000FFE71199486C40F004004864FFE79DF8BD
:1014900040000007002811D5FFE79DF83C008006BA
:1014A000002805D4FFE79DF83800C00730B1FFE7FA
:1014B0001199486C40F008004864FFE71198406CAF
:1014C000002866D0FFE79DF84000800600280AD576
:1014D000FFE79DF83C008006002804D5FFE711983F
:1014E00001F066F9FFE7119800684069C0F38010C9
:1014F0000C901198406C0007002804D4FFE70C986A
:1015000000283ED0FFE7119801F0F4F81198006828
:101510004069400600282FD5FFE7FFE7FFE7119855
:10152000006850E8050F20F040000B90FFE70B9992
:101530001198026842E805100028F0D1FFE7FFE7A4
:101540001198C06B98B1FFE71198C16B42F2D5605A
:10155000C0F6000048631198C06BFEF7F9FE28B191
:10156000FFE71198C06B416B8847FFE703E01198D4
:10157000FFF71CFFFFE703E01198FFF717FFFFE7F6
:1015800006E01198FFF712FF119900204864FFE769
:10159000FFE722E11198006B012840F0FE80FFE791
:1015A0009DF84000C006002840F1F780FFE79DF855
:1015B0003C00C006002840F1F080FFE7FFE7002074
:1015C0000A901198006800680A90119800684068B5
:1015D0000A900A98FFE711980068406940060028C1
:1015E00040F18180FFE71198C06B00684068ADF85A
:1015F0002600BDF82600002874D0FFE7BDF82600BD
:101600001199898D88426DDAFFE7BDF8260011999E
:10161000C8851198C06B8069202858D0FFE7FFE784
:10162000FFE71198006850E8030F20F480700890DD
:10163000FFE708991198026842E803100028F0D1EA
:10164000FFE7FFE7FFE7FFE71198006850E8050FA5
:1016500020F001000790FFE707991198026842E81F
:1016600005100028F0D1FFE7FFE7FFE7FFE711983B
:10167000006850E8050F20F040000690FFE706994B
:101680001198026842E805100028F0D1FFE7FFE753
:101690001199202081F84200119900200863FFE78A
:1016A000FFE71198006850E8030F20F01000059044
:1016B000FFE705991198026842E803100028F0D16D
:1016C000FFE7FFE71198C06BFEF704FEFFE71199F3
:1016D000022048631198818DC28D891A89B2FFF763
:1016E0005FFEFFE779E01199888DC98D401AADF84A
:1016F00012001198C08D00284ED0FFE7BDF81200EF
:10170000002849D0FFE7FFE7FFE71198006850E89D
:10171000030F20F490700390FFE70399119802687B
:1017200042E803100028F0D1FFE7FFE7FFE7FFE7FB
:101730001198006850E8050F20F001000290FFE7C3
:1017400002991198026842E805100028F0D1FFE7DD
:10175000FFE71199202081F84200119900200863C9
:10176000FFE7FFE71198006850E8030F20F0100032
:101770000190FFE701991198026842E803100028E0
:10178000F0D1FFE7FFE71199022048631198BDF8F7
:101790001210FFF705FEFFE71FE09DF8400000066E
:1017A00000280AD5FFE79DF83C000006002804D574
:1017B000FFE7119801F042F90FE09DF84000400664
:1017C00000280AD5FFE79DF83C004006002804D514
:1017D000FFE7119800F0D8FFFFE712B080BD0000CE
:1017E00080B582B00090009820B9FFE701208DF805
:1017F000070040E00098806908B1FFE700E0FFE7DC
:10180000009890F8410040B9FFE70099002081F866
:101810004000009800F034F8FFE70099242081F898
:10182000410000980168C86820F40050C860009822
:1018300001F074F800980168086920F4904008618C
:1018400000980168486920F02A0048610098016802
:10185000C86840F40050C860009900204864009AAD
:10186000202182F84110009A82F8421000994863C2
:101870008DF80700FFE79DF8070002B080BD00006B
:1018800080B592B01190002010900F900E900D90A6
:101890001198006843F60001C4F20101884243D167
:1018A000FFE7FFE741F21800C4F20200016841F4CB
:1018B00080410160006800F480400C900C98FFE7C4
:1018C000FFE741F21800C4F20200016841F0040190
:1018D0000160006800F004000B900B98FFE74FF4E4
:1018E00000700D9002200E900320109040F6000032
:1018F000C4F2010005900DA90691FEF7D9FD0598E7
:1019000006994FF480620D92002207920E920F9278
:10191000FEF7CEFD079A252008901146FFF724F820
:101920000898FFF717F84CE01198006844F600019A
:10193000C4F20001884243D1FFE7FFE741F21C00F7
:10194000C4F20200016841F480210160006800F4E3
:1019500080200A900A98FFE7FFE741F21800C4F2DE
:101960000200016841F008010160006800F0080011
:1019700009900998FFE74FF480600D9002200E90C7
:101980000320109040F60040C4F2010001900DA920
:101990000291FEF78DFD019802994FF400620D92BD
:1019A000002203920E920F92FEF782FD039A2720E7
:1019B00004901146FEF7D8FF0498FEF7CBFFFFE72F
:1019C000FFE712B080BD000080B58AB00890079193
:1019D000ADF81A20059300200290089890F8420074
:1019E000202840F08880FFE7079820B1FFE7BDF886
:1019F0001A0020B9FFE701208DF827007FE0089941
:101A000000204864089A222182F84210089908634D
:101A1000FEF70EFF0290BDF81A0008998885BDF800
:101A20001A000899C88508988068B0F5805F09D1C8
:101A3000FFE70898006928B9FFE70020049007989D
:101A4000039004E00798049000200390FFE7FFE76D
:101A50000898C08D002846D0FFE70898029B05999A
:101A60006A4611602021002201F032F840B1FFE700
:101A70000899202081F8420003208DF827003EE0DD
:101A8000049858B9FFE70898006840686FF35F2032
:101A9000039908800398023003901FE0089880683B
:101AA000B0F5805F08D0FFE70898806850B9FFE77D
:101AB0000898006930B9FFE7089800684068049901
:101AC000087007E008980068406800F07F000499FB
:101AD0000870FFE7049801300490FFE70899C88D6B
:101AE0000138C885B4E70899202081F84200002019
:101AF0008DF8270003E002208DF82700FFE79DF80E
:101B000027000AB080BD000080B584B0029001912A
:101B1000ADF80220029890F84200202817D1FFE784
:101B2000019820B1FFE7BDF8020020B9FFE70120CE
:101B30008DF80F000FE002990020086302980199C8
:101B4000BDF8022000F048FF8DF80F0003E00220EE
:101B50008DF80F00FFE79DF80F0004B080BD000076
:101B600080B582B001900198006843F60001C4F28C
:101B70000101884211D1FFE740F23810C2F20000A3
:101B80000090007800F0C4FB009940F27400C2F2AB
:101B900000000122FFF7B8FFFFE702B080BD0000A0
:101BA00080B58AB008900791ADF81A2005930020FF
:101BB0000290089890F84100202840F08180FFE7CB
:101BC000079820B1FFE7BDF81A0020B9FFE7012010
:101BD0008DF8270078E008990020486408992120B2
:101BE00081F84100FEF724FE0290BDF81A00089922
:101BF0008884BDF81A000899C88408988068B0F5F0
:101C0000805F09D1FFE70898006928B9FFE7002045
:101C100004900798039004E0079804900020039034
:101C2000FFE7FFE70898C08C78B3FFE70898029BAE
:101C300005996A4611608021002200F049FF40B1F9
:101C4000FFE70899202081F8410003208DF8270044
:101C50003AE0049858B9FFE7039800886FF35F20D3
:101C600008990968486003980230039008E00498D6
:101C70000078089909684860049801300490FFE7EB
:101C80000899C88C0138C884CCE70898029B05994C
:101C90006A4611604021002200F01AFF40B1FFE7C0
:101CA0000899202081F8410003208DF827000BE0DF
:101CB0000899202081F8410000208DF8270003E0DA
:101CC00002208DF82700FFE79DF827000AB080BDAD
:101CD00081B0009001B07047FFE7FEE780B592B099
:101CE0000020119010900F900E90FFE741F2180025
:101CF000C4F20200016841F010010160006800F0C8
:101D000010000D900D98FFE7FFE741F21800C4F2B4
:101D10000200016841F020010160006800F020002D
:101D20000C900C98FFE7FFE741F21800C4F20200A4
:101D3000016841F004010160006800F004000B90AC
:101D40000B98FFE7FFE741F21800C4F202000168B8
:101D500041F008010160006800F008000A900A984C
:101D6000FFE741F20000C4F2010001904FF400517E
:101D7000009100220692FEF743FD069A40F600000D
:101D8000C4F20100039008210291FEF739FD40F6EC
:101D90000040C4F201000890102104910122079232
:101DA000FEF72EFD009A019807990E920F9110915F
:101DB0000221059111910EA90991FEF779FBDDF839
:101DC00008C00398059A079B0999CDF838C00F936E
:101DD00010931192FEF76CFBDDF810C0059A079B7B
:101DE00008980999CDF838C00F9310931192FEF717
:101DF0005FFB069B079A089809994FF0200CCDF8D5
:101E000038C00F931092FEF753FB12B080BD000054
:101E100080B582B040F27400C2F20000019043F637
:101E20000001C4F2010101604FF4E1314160002181
:101E30008160C16001610C2242618161C161FFF773
:101E4000CFFC18B1FFE7FEF73DFAFFE702B080BD17
:101E500080B582B040F2BC00C2F20000019044F6AE
:101E60000001C4F2000101604FF4E1314160002142
:101E70008160C16001610C2242618161C161FFF733
:101E8000AFFC18B1FFE7FEF71DFAFFE702B080BD17
:101E9000FFE7FEE780B582B08DF807009DF80700E8
:101EA0008DF80300F3208DF8040000208DF8050064
:101EB0006B208DF806000DF10300042100F0B2F84C
:101EC00002B080BD82B08DF806009DF80600013892
:101ED00001460091032814D80099DFE801F00206BA
:101EE0000A0E01208DF807000FE000208DF8070092
:101EF0000BE001208DF8070007E000208DF80700B7
:101F000003E000208DF80700FFE79DF8070002B00E
:101F10007047000082B08DF805009DF8050001387B
:101F200001460091032818D80099DFE801F0020764
:101F30000C1140F2DC50ADF8060013E040F2DC502A
:101F4000ADF806000EE040F2DC50ADF8060009E006
:101F50004FF49670ADF8060004E04FF4FA70ADF857
:101F60000600FFE7BDF8060002B0704780B582B0FA
:101F700040F20120C0F2034001904FF47A70FEF766
:101F800075FA01208DF80300FFE79DF8030004288F
:101F900010DCFFE79DF8032040F20411C2F20001BB
:101FA000002041F82200FFE79DF8030001308DF882
:101FB0000300EAE700208DF80300FFE79DF8030027
:101FC00003280DD8FFE79DF8031001A8405CFFF738
:101FD00061FFFFE79DF8030001308DF80300EDE796
:101FE00000208DF80300FFE79DF8030003280DD8BB
:101FF000FFE79DF8031001A8405C00F017F9FFE728
:102000009DF8030001308DF80300EDE702B080BDBC
:1020100081B08DF803009DF80300B0FA80F040090C
:1020200001B0704780B584B002908DF80710029916
:102030009DF8072040F2BC00C2F200006423FFF7C5
:10204000AFFD20B1FFE74FF0FF30039005E00A201D
:10205000FEF70CFA00200390FFE7039804B080BD60
:1020600080B58CB08DF82B0009918DF8232009984C
:102070009DF82B2040F20411C2F2000151F8221009
:1020800001F0ACFA20F000404DF20A71C3F6234192
:1020900001F021F818B9FFE701200B9082E09DF8CC
:1020A000230040B9FFE709980021C4F2C84101F0BC
:1020B000C9F904900EE0099820F000400021C4F214
:1020C000C85101F0BFF90021C4F2B43101F024F885
:1020D0000490FFE70998002101F00BF830B9FFE701
:1020E0009DF82B00FFF7EEFE019007E09DF82B0016
:1020F000FFF7E8FEFFF78CFF0190FFE701988DF8EE
:102100000B00049820F0004001F0FCF803909DF8CB
:102110002B00FFF7FFFEADF808009DF82B008DF8AF
:102120001600FD208DF817009DF80B008DF81800A3
:102130009DF809008DF81900BDF808008DF81A0007
:1021400096208DF81B009DF80F008DF81C00BDF83F
:102150000E008DF81D000398000A8DF81E000398EC
:102160008DF81F0001208DF8200000208DF821003F
:102170006B208DF822000DF116000D21FFF752FFA4
:1021800060B9FFE709989DF82B2040F20411C2F2D4
:10219000000141F8220000200B9003E04FF0FF30D7
:1021A0000B90FFE70B980CB080BD000080B584B0A9
:1021B0008DF80B000191019B40F2BC00C2F20000BF
:1021C00069460422FFF700FC20B1FFE74FF0FF3023
:1021D00003901CE09DF800009DF80B1088420FD181
:1021E000FFE79DF80100FD280AD1FFE79DF80200F6
:1021F0009F2805D1FFE79DF803006B2804D0FFE777
:102200004FF0FF30039002E000200390FFE70398B7
:1022100004B080BD80B582B08DF807009DF807003E
:1022200044F62061FFF7C2FF02B080BD80B582B0E6
:102230008DF807009DF807008DF803000A208DF83F
:1022400004006D208DF805006B208DF806009DF8C8
:10225000072040F20411C2F20001002041F82200E0
:102260000DF103000421FFF7DDFE02B080BD000088
:10227000FFE7FEE788B0079006910592079800F007
:10228000070004900498C0F10700052803D3FFE776
:102290000420019004E00498C0F107000190FFE7DA
:1022A0000198039004980430062803D8FFE7002023
:1022B000009003E0049803380090FFE70098029034
:1022C00006980399012202FA01F101390840029BA4
:1022D000984005999A40013A1140084308B0704768
:1022E00080B582B0019001980178407840EA0120E1
:1022F000ADF80200BDF9020001F024F80021C4F29B
:10230000C82100F009FF02B080BD00007047000046
:1023100083B08DF80B0040F22B10C2F20000007861
:102320000146019140B1FFE7019801281DD0FFE768
:102330000198022852D095E09DF80B00AA2813D1ED
:10234000FFE79DF80B0040F21811C2F2000108707F
:1023500040F22A11C2F200010120087040F22B1154
:10236000C2F200010870FFE77CE09DF80B0040F22C
:102370001811C2F20001487040F22A11C2F20001A5
:10238000022008709DF80B000146009120B1FFE784
:10239000009801280DD019E040F22C11C2F2000182
:1023A0000420087040F22B11C2F2000102200870D4
:1023B00013E040F22C11C2F200011120087040F22B
:1023C0002B11C2F200010220087006E040F22B112E
:1023D000C2F2000100200870FFE743E040F22A103B
:1023E000C2F200000078112807D3FFE740F22B115A
:1023F000C2F200010020087034E09DF80B1040F29A
:102400002A10C2F2000003785A1C027040F218121F
:10241000C2F20002D154007840F22C11C2F2000145
:10242000097888421DDBFFE740F22C10C2F2000061
:10243000007840F21811C2F20001084410F8010CB3
:10244000BB2807D1FFE740F22911C2F200010120A9
:102450000870FFE740F22B11C2F200010020087063
:10246000FFE7FFE703B0704780B584B002900298A1
:1024700020B9FFE74FF0FF30039052E040F22910FF
:10248000C2F20000007838B9FFE702990020087511
:102490004FF0FF30039044E040F21810C2F2000009
:1024A000407801280CD0FFE702990020087540F21F
:1024B0002911C2F2000108704FF0FF30039030E0A4
:1024C00040F21810C2F2000001900330FFF708FF3D
:1024D00001460198029A11600630FFF701FF01469C
:1024E0000198029A51600930FFF7FAFE01460198FF
:1024F000029A91600C30FFF7F3FE01460198029AB0
:10250000D1600E30FFF7ECFE0299086102990120BC
:10251000087540F22911C2F20001002008700390F2
:10252000FFE7039804B080BD80B582B08DF8070046
:1025300040F22B11C2F200010020087040F22A1173
:10254000C2F20001087040F22C11C2F200010870C2
:1025500040F22911C2F200010870AA218DF803107F
:102560008DF804009DF807008DF80500BB208DF85C
:10257000060040F27400C2F200000DF103010422D3
:102580006423FFF70DFB02B080BD000040F229106C
:10259000C2F200000078704780B582B0AA208DF8A2
:1025A000050002208DF80600BB208DF8070040F2E0
:1025B0007400C2F200000DF1050103226423FFF74D
:1025C000EFFA02B080BD000082B00190019840F2A5
:1025D0000001C2F200010968C90844F6D352C1F2F1
:1025E0006202A1FB0221890948430090FFE700BF76
:1025F000FFE70098411E00910028F8D1FFE702B0E4
:10260000704700007047000080B582B000900098CD
:102610000138B0F1807F03D3FFE70120019019E07A
:10262000009801384EF21401CEF2000108604FF01C
:10263000FF300F2100F0ECFA4EF21801CEF200014B
:10264000002008604EF21002CEF200020721116055
:102650000190FFE7019802B080BD000080B5FEF751
:10266000EDF880BD80B590B006A800902821FDF758
:10267000C1FD0098002305930493039302930193F3
:10268000012206924FF48031079108930A920222A8
:102690000D920E914FF4E0110F91FEF73BFB18B134
:1026A000FFE7FDF70FFEFFE70F20019002210291E7
:1026B000002003904FF480620492059001A8FEF779
:1026C00075F918B1FFE7FDF7FDFDFFE710B080BD1C
:1026D0007047000080B582B001900198406A009078
:1026E00000990020C8850099C8840098FEF75EFE16
:1026F00002B080BD84B00390FFE7FFE70398006855
:1027000050E8030F20F490700290FFE702990398BD
:10271000026842E803100028F0D1FFE7FFE7FFE777
:10272000FFE70398006850E8050F20F001000190D2
:10273000FFE701990398026842E805100028F0D1EC
:10274000FFE7FFE70398006B012814D1FFE7FFE7DD
:10275000FFE70398006850E8030F20F01000009096
:10276000FFE700990398026842E803100028F0D1BF
:10277000FFE7FFE7FFE70399202081F84200039974
:102780000020086304B0704780B582B001900198C2
:102790000168C86820F04000C8600199202081F8D5
:1027A00041000198FFF794FA002002B080BD0000BC
:1027B00080B586B00490049890F84200222840F03A
:1027C000A480FFE704988068B0F5805F15D1FFE72B
:1027D0000498006988B9FFE7002003900498806A94
:1027E00002900498006840686FF35F2002990880A7
:1027F0000499886A0230886225E00498806A039010
:102800000020029004988068B0F5805F08D0FFE750
:102810000498806850B9FFE70498006930B9FFE771
:102820000498006840680399087007E004980068FD
:10283000406800F07F0003990870FFE70499886AF8
:1028400001308862FFE70499C88D0138C88500040B
:10285000002856D1FFE704980168C86820F02000DE
:10286000C86004980168C86820F48070C860049843
:102870000168486920F0010048610499202081F82E
:1028800042000499002048630498006B012830D16D
:10289000FFE7049900200863FFE7FFE7049800685A
:1028A00050E8030F20F010000190FFE70199049811
:1028B000026842E803100028F0D1FFE7FFE7049820
:1028C00000680068C00600280ED5FFE7FFE700207B
:1028D00000900498006800680090049800684068C0
:1028E00000900098FFE7FFE70498818DFEF758FD00
:1028F00003E00498FFF734F9FFE700208DF8170094
:1029000007E000208DF8170003E002208DF8170083
:10291000FFE79DF8170006B080BD000080B584B0C9
:10292000039003980068006920F44050039A1168EE
:10293000D26810430861039988680A69496910439D
:102940000843029003980068C06841F20C61884314
:102950000299084303990968C860039800684069B0
:1029600020F44070039A11689269104348610398FB
:10297000006843F60001C4F20101884204D1FFE778
:10298000FEF758F9019003E0FEF742F90190FFE7E6
:10299000019819214843039A116852689200B0FBCC
:1029A000F2FC48F21F52C5F2EB12ACFB02304309B5
:1029B000642003FB10CC322000EB0C10A0FB0202C1
:1029C000F02000EA521000EB0310C2F3431210444F
:1029D000886004B080BD000083B002900191ADF822
:1029E0000220019802998862BDF802000299888548
:1029F000BDF802000299C885029900204864029936
:102A0000222081F842000298006938B1FFE702985D
:102A10000168C86840F48070C860FFE702980168E8
:102A2000486940F00100486102980168C86840F0B8
:102A30002000C860002003B07047000083B0019000
:102A4000019890F8410021283AD1FFE70198806869
:102A5000B0F5805F13D1FFE70198006978B9FFE70F
:102A60000198006A0090009800886FF35F20019938
:102A7000096848600199086A0230086208E0019A12
:102A8000106A411C11620078019909684860FFE7EB
:102A90000199C88C0138C884000468B9FFE701981F
:102AA0000168C86820F08000C86001980168C868A3
:102AB00040F04000C860FFE700208DF80B0003E005
:102AC00002208DF80B00FFE79DF80B0003B0704764
:102AD00080B586B0DDF820C0049003918DF80B20FE
:102AE0000193FFE704980068006803990840401AC2
:102AF000B0FA80F040099DF80B1088424DD1FFE7F5
:102B000008980130002847D0FFE7FDF791FE0199B2
:102B1000401A0899884203D8FFE7089820B9FFE7D0
:102B200003208DF817003CE004980068C068400757
:102B3000002830D5FFE7039880282CD0FFE70398C2
:102B4000402828D0FFE704980068006800F00801DA
:102B50000120B0EBD10F1DD1FFE7FFE7002000906F
:102B6000049800680068009004980068406800902D
:102B70000098FFE70498FFF7BDFD0499082048641A
:102B8000FFE70499002081F84000FFE701208DF85D
:102B9000170006E0FFE7FFE7A4E700208DF8170025
:102BA000FFE79DF8170006B080BD000080B540F239
:102BB0007400C2F20000FEF7FDFB80BD80B540F25C
:102BC000BC00C2F20000FEF7F5FB80BDFFE7FEE7A8
:102BD00081B08DF803009DF9030000280ED4FFE7B3
:102BE0009DF9031001F01F02012090404A094EF2A6
:102BF0000011CEF2000141F82200FFE701B070475A
:102C00004EF60C50CEF200000068C0F30220704770
:102C100082B08DF8070000919DF9070000280AD4C2
:102C2000FFE7009800019DF907104EF20042CEF236
:102C3000000288540BE0009800019DF8071001F095
:102C40000F014EF61452CEF200028854FFE702B094
:102C50007047000083B00290029800F007000090D7
:102C60004EF60C51CEF200010868019001984FF623
:102C7000FF02104001900198009A40EA02200022D1
:102C8000C0F2FA52104301900198086003B07047F7
:102C900080B590B0002006900F90FDF7DDFDFFF7A6
:102CA000E1FCFFF71BF8FFF7B3F8FFF7D1F840F6A8
:102CB0000040C4F201002021FDF78AFD012818BF61
:102CC000022040F27001C2F2000105910870FFF786
:102CD0004DF905980078FFF727FC40F27400C2F226
:102CE000000040F23811C2F200010122FEF70CFF91
:102CF000069840F22D11C2F200010870FFE740F281
:102D00002D10C2F20000007801460491022804D37D
:102D1000FFE7049802285DD0ACE0FFF737FCE8B18C
:102D2000FFE709A8FFF7A0FBB8B9FFE79DF8380057
:102D300098B1FFE709A800F09FF8FFF72DFCFDF719
:102D400077FD40F23411C2F20001086040F22D110B
:102D5000C2F2000101200870FFE7FFE740F22D10EA
:102D6000C2F200000078012833D1FFE7FDF760FDD3
:102D700040F23411C2F200010968401A41F289316F
:102D8000884226D3FFE701200290002201921146DB
:102D9000FFF766F9019A022003901146FFF760F9E8
:102DA000019A03201146FFF75BF90199029A04206A
:102DB000FFF756F9FDF73CFD0146039840F230124B
:102DC000C2F20002116040F22D11C2F2000108703F
:102DD000FFE74FE0FDF72CFD40F23011C2F2000199
:102DE0000968401A0890089841F2873188422DD826
:102DF000FFE7089A44F6D350C1F26200A2FB00102C
:102E000080094FF47A7100FB11210020B1F5FA7F9F
:102E100038BF01208DF81F009DF81F20002A18BF21
:102E2000012241F20000C4F201004FF40051FDF70D
:102E3000E7FC9DF81F20002A18BF012240F6000081
:102E4000C4F201000821FDF7DBFC12E041F20000B2
:102E5000C4F201004FF4005100220092FDF7D0FCB3
:102E6000009A40F60000C4F201000821FDF7C8FCFA
:102E7000FFE7FFE743E7000080B58AB009900998B3
:102E800000680021CCF20C3100F0AEF801460120C0
:102E900000220392FFF7E4F808900998406848F28E
:102EA0000001CCF2953100F09FF8039A0146022010
:102EB000FFF7D6F80790089820B9FFE70120FFF741
:102EC000A9F9FFE7079820B9FFE70220FFF7A2F969
:102ED000FFE703200021C4F270110022FFF7C0F8C1
:102EE00020B9FFE70320FFF795F9FFE740F6004020
:102EF000C4F20100102100220292FDF781FC4FF480
:102F0000FA70FDF7B3FA029A03201146FFF7A8F80A
:102F100020B9FFE70320FFF77DF9FFE709988068F4
:102F20000021CCF20C3100F05FF801460120019045
:102F300000220092FFF794F806900998C06848F2C2
:102F40000001CCF2953100F04FF8009A01460220C2
:102F5000FFF786F8019A0590099801690420FFF7A8
:102F60007FF80490069820B9FFE70120FFF752F997
:102F7000FFE7059820B9FFE70220FFF74BF9FFE7CD
:102F8000049820B9FFE70420FFF744F9FFE7032086
:102F90000021C4F270110022FFF762F820B9FFE7A8
:102FA0000320FFF737F9FFE740F60040C4F20100C5
:102FB00010210122FDF724FC032000221146FFF717
:102FC0004FF820B9FFE70320FFF724F9FFE70420BB
:102FD00000210122FFF744F820B9FFE70420FFF7A2
:102FE00019F9FFE70AB080BD90EA010F48BF81F0F0
:102FF000004100F1FA82421A3CBF801A89184FEA58
:10300000D052A2EBD1534FF07F4C1CEA410F18BFB6
:103010009CEA026F00F03B804FF0004C4CEA00202D
:103020004CEA012121FA03FC10EB0C0C1ED202F138
:10303000FF325FEA1C2040EBC25038BF70471CF0E3
:103040007F0F4FEA400C18BFBCF17F4F38BF70476D
:10305000C3F12003994008BF20F00100BCF17F4F6D
:1030600038BF7047A0F1C04000F0B3BA4FEA3C004F
:10307000000A40EBC25028BF1CF0FF0F4FEA400C83
:10308000E6D018BFBCF17F4F38BF7047EAE79CEA33
:10309000026F05D010EA5C0F08BF00F000407047D7
:1030A00010B500F050FA00BF64FBBE3E10B500F052
:1030B000F5F80CBF0120002010BD10B500F0EEF8AF
:1030C00014BF0120002010BD10B500F053F98CBFD3
:1030D0000120002010BD10B500F04CF92CBF0120DC
:1030E000002010BD10B500F079F994BF0120002038
:1030F00010BD10B500F072F934BF0120002010BDE2
:10310000401058BFC0F14040491058BFC1F1404184
:103110008142EFF3008070474FF47F0C1CEAD0121D
:103120001EBF1CEAD11392EA0C0F93EA0C0F00F0B9
:10313000858090EA010F48BF42F4807240F4000C91
:1031400041F400002CF07F4120F07F4000B5A2EB5D
:10315000030281420FF2081CACEB504E9EF800E0D7
:10316000C0F100004FEA4E0E00FB0EFC38BF4900D4
:103170004FEA2C1C0CFB0EF34FEACE1E0EEB635EE7
:103180004FEA112C0EFB0CFC4FEAC1214FEA1C53F5
:1031900000FB031102F5FA024FEA112C0EFB0CFCA6
:1031A0004FEA01314FEADC4C00FB0C1142EB2242AA
:1031B000C14228BF09184CEB03335DF804EB10EB58
:1031C000410143EBC250B2F57C0F38BF704729D59F
:1031D00012F0F00F1CBF00F1C04000F0004070473B
:1031E000008182838485868788898B8C8D8E8F91E0
:1031F0009293959697999A9C9D9FA0A2A3A5A7A804
:10320000AAACAEB0B2B3B5B7B9BCBEC0C2C5C7C92F
:10321000CCCED1D4D7D9DCDFE2E6E9ECF0F3F7FA93
:10322000FE0000004FEA400C0CF1807CBCF17E4FA8
:1032300028BF7047B0F1C04000F0CBB90CEAD11301
:1032400090EA010F48BF42F48072624538BF63457F
:1032500007D213F47F0F16D080EA010000F000407F
:10326000704710B500F06FF9097EFC3E00F005B81C
:1032700080EA010000F00040704780EA010000F0A1
:10328000004000F0A6B912F47F0F04BF0248704757
:1032900080EA010000F09DB90000C07F50EA010CF7
:1032A00000F113801CF5000F58BFBCF5000F01D4CE
:1032B0008842704707D710F5000F58BF11F5000F6F
:1032C00015D488427047894270471CF5000F04D519
:1032D000BCF5000FF7D5814270474FF0807C1CEBA6
:1032E000400F38BF1CEB410F01D28142704710B52F
:1032F00000F029F9922449004FF000504FF080511E
:10330000FFF7FEBEC10DD1F19E0206DB4FEA00239E
:1033100043F0004323FA02F07047004207D54FEA1A
:103320004001B1F1FE4F02D24FF00000704710B5DE
:1033300000F009F949922480002070476FEA2000CC
:103340007047000010F0004148BF4042B0FA80F3DF
:1033500010FA03F2C3F19D030BD051EAC35101EB04
:103360001220530638BF704700F1010008BF20F05B
:103370000100704750EA010C00F113801CF5000FAA
:1033800058BFBCF5000F01D48842704707D710F52D
:10339000000F58BF11F5000F15D4884270478942BD
:1033A00070471CF5000F04D5BCF5000FF7D581421E
:1033B00070474FF0807C1CEB400F38BF1CEB410F77
:1033C00001D28142704710B500F0BDF89224490047
:1033D0004FF080504FF00051FFF792BE50EA010CC1
:1033E00000F113801CF5000F58BFBCF5000F01D48D
:1033F0008842704707D710F5000F58BF11F5000F2E
:1034000015D488427047894270471CF5000F04D5D7
:10341000BCF5000FF7D5814270474FF0807C1CEB64
:10342000400F38BF1CEB410F01D28142704710B5ED
:1034300000F089F8922449004FF000504FF080517D
:10344000FFF75EBE4FF47F0C1CEAD0121EBF1CEAD1
:10345000D11392EA0C0F93EA0C0F00F0478090EA28
:10346000010F48BF42F480724FF0004C4CEA00203C
:103470004CEA012102EB0302A0FB0113A2F50002BA
:10348000002918BF43F001035B0028BF4FEA330354
:1034900042EB22425FEA132C4CEBC2502EBFBCEB36
:1034A000436FB2F57C0F70474FEA036CBCF1004FDD
:1034B00008BF20F00100B2F57C0F38BF70470BD574
:1034C00082F0FF0212F5803FC8BF704700F1C04094
:1034D000D8BF00F00040704700F5000C5FEA4C0CCC
:1034E00048BF7047B0F1C04000F073B80CEAD11388
:1034F00090EA010F48BF42F48072624538BF6345CD
:1035000004D280EA010000F00040704710B500F0DE
:103510001AF800BF8900013E00F007B800F009B8B2
:103520005FEA410C5FEA1C6C08D080EA010000F001
:1035300050B85FEA400C5FEA1C6CF6D14FF00040D7
:10354000A0F5800070470EF1020E2EF0030E5EF81B
:10355000044B244204D44FEA4102B2F17F4F11D808
:103560004FEA4003B3F17F4F0CD80ED14FEAD07C25
:103570000CEB4C0C0CF1020CB2F17F4F08BF4CEB82
:10358000D17C04E04FF0080C01E04FEAD17C0CEB59
:103590004C0324FA03F404F00704B4F1040C06D23B
:1035A0000EEB840CBDE810404CF0010C6047DFE8E6
:1035B0000CF0070802024FF00040A0F5800010BD9B
:1035C0000846420018BFD2F1807288BF00F0004068
:1035D00010BDFF2141EAD050C005704790EA010FAD
:1035E00048BF81F000413FF506AD421A04D882F091
:1035F0000042A0EB020011444FEAD052A2EBD1539B
:103600004FF07F4C1CEA410F18BF9CEA026F4AD072
:103610004FF0004C4CEA00204CEA012121FA03FC57
:10362000B0EB0C0C0FD412F0FE0F36D05FEA4C005A
:103630001DD5001240EBC25038BF70471CF03F0F41
:1036400018BF70470BE05FEA1C20A2F1010240EBBB
:10365000C25038BF70471CF07F0F18BF7047C3F1CE
:103660002003994014BF401E20F0010070474FEA2C
:103670001223800808BF7047B0FA80FCA2EB0C024E
:10368000CCF1280C60FA0CF093EA122F04BF00EB87
:10369000C25070474FEAC3707047130A5FEADC10EC
:1036A00008BF7047F6E79CEA026F04D010EA5C0F8F
:1036B00008BF0020704710B5FFF745FF40DFF63E1A
:1036C00081F000407047000000000000000001028F
:1036D00003040607080900000000010203040203B6
:1036E0000405060708090A0B0C0D0E0F1010010245
:1036F00010370008000000201000000050010008F2
:10370000203700081000002030070000700100087A
:1037100000127A000100000010000000000000000C
:04000005080000ED02
:00000001FF
